:020000040000FA
:100000000C9462000C948A000C948A000C948A0070
:100010000C948A000C948A000C948A000C948A0038
:100020000C948A000C948A000C948A000C948A0028
:100030000C948A000C948A000C948A000C948A0018
:100040000C9413030C948A000C948A000C948A007C
:100050000C948A000C948A000C948A000C948A00F8
:100060000C948A000C948A000000000024002700F1
:100070002A0000000000250028002B0000000000DE
:1000800023002600290004040404040404040202DA
:100090000202020203030303030301020408102007
:1000A0004080010204081020010204081020000012
:1000B0000008000201000003040700000000000027
:1000C00000000A0511241FBECFEFD8E0DEBFCDBF70
:1000D00011E0A0E0B1E0E8E3FEE002C005900D927F
:1000E000AA32B107D9F721E0AAE2B1E001C01D921E
:1000F000AF34B207E1F710E0C2E6D0E004C02197C8
:10010000FE010E941407C136D107C9F70E945D03A2
:100110000C941A070C940000833081F028F481308D
:1001200099F08230A9F008958730A9F08830C9F09D
:100130008430B1F4809180008F7D03C08091800075
:100140008F7780938000089584B58F7784BD08955C
:1001500084B58F7DFBCF8091B0008F778093B00006
:1001600008958091B0008F7DF9CFCF93DF93282F32
:1001700030E0F901E255FF4F8491F901E656FF4F57
:10018000D491F901EA57FF4FC491CC23A1F081111A
:100190000E948C00EC2FF0E0EE0FFF1FE458FF4FA1
:1001A000A591B491EC91ED2381E090E009F480E019
:1001B000DF91CF91089580E090E0FACF1F93CF9325
:1001C000DF93282F30E0F901E255FF4F8491F901C8
:1001D000E656FF4FD491F901EA57FF4FC491CC2363
:1001E000A9F0162F81110E948C00EC2FF0E0EE0F89
:1001F000FF1FEE58FF4FA591B4918FB7F894EC9183
:10020000111108C0D095DE23DC938FBFDF91CF9111
:100210001F910895DE2BF8CFCF93DF9390E0FC0180
:10022000E656FF4F24918A579F4FFC018491882303
:10023000D1F090E0880F991FFC01E859FF4FA5917C
:10024000B491FC01EE58FF4FC591D49161110EC0DD
:100250009FB7F8948C91E22FE0958E238C932881A0
:10026000E223E8839FBFDF91CF9108958FB7F89481
:10027000EC91E22BEC938FBFF6CFAF92BF92CF926F
:10028000DF92EF92FF920F931F93CF93DF936C0156
:100290007B018B01040F151FEB015E01AE18BF0837
:1002A000C017D10759F06991D601ED91FC910190E9
:1002B000F081E02DC6010995892B79F7C501DF9101
:1002C000CF911F910F91FF90EF90DF90CF90BF9053
:1002D000AF900895089590E080E00895FC010190AA
:1002E0000020E9F73197AF01481B590BBC0187E3A8
:1002F00091E00C943D018F929F92AF92BF920F9329
:100300001F93CF93DF93CDB7DEB7A1970FB6F894C5
:10031000DEBF0FBECDBF19A2423008F44AE08E0105
:100320000F5D1F4F842E912CB12CA12CA50194019F
:100330000E94F206E62FB901CA01EA30F4F4E05D4A
:10034000D801EE938D01232B242B252B79F790E0F8
:1003500080E0109719F0CD010E946E01A1960FB6B2
:10036000F894DEBF0FBECDBFDF91CF911F910F91EB
:10037000BF90AF909F908F900895E95CE1CFCF93AD
:10038000DF93EC0160E08E810E94DE0061E08E81EF
:100390000E94DE0060E08E810E94DE008BE891E02A
:1003A0000197F1F7DF91CF910895CF92DF92EF920D
:1003B000FF920F931F93CF93DF936C017C0187E033
:1003C000E80EF11CD0E0C0E0062F10E0B8010C2EC2
:1003D00002C0759567950A94E2F76170F701819103
:1003E0007F010E94DE002196C430D10579F7C60155
:1003F000DF91CF911F910F91FF90EF90DF90CF9001
:100400000C94BF01CF92DF92EF92FF920F931F9354
:10041000CF93DF93EC01F62E642F8C810E94DE00D7
:100420008D818F3F19F060E00E94DE000F2D10E0FB
:100430008F8584FF25C06E0187E0C80ED11CF12C8A
:10044000E12CB8010E2C02C0759567950A94E2F76D
:100450006170F60181916F010E94DE00FFEFEF1ADB
:10046000FF0A88E0E816F10461F7CE01DF91CF9131
:100470001F910F91FF90EF90DF90CF900C94BF01F0
:10048000B80184E0759567958A95E1F7CE010E94E1
:10049000D5016F2DCE01DF91CF911F910F91FF906C
:1004A000EF90DF90CF900C94D50140E0682F87E368
:1004B00091E00C94020281E00E9455028BE39FE1DF
:1004C0000197F1F70895CF93DF93823029F490914B
:1004D000460198609093460180934A0110924B0127
:1004E00080E480934C0180E180934D0180E580930E
:1004F0004E0161E080913B010E940C0180913C0122
:100500008F3F19F061E00E940C0161E080913D0194
:100510000E940C01C7E3D1E09E0127533140809136
:10052000460184FD0BC084E090E02196281739072E
:1005300044F461E08E810E940C01EECF88E090E0EF
:10054000F4CF8BE39DE00197F1F760E080913B01F0
:100550000E94DE0060E080913D010E94DE008091FB
:100560003C018F3F19F060E00E94DE00809146015F
:1005700084FD34C063E087E391E00E94D501CBE4C1
:10058000D6E4CE010197F1F763E087E391E00E94A2
:10059000D5012197F1F763E087E391E00E94D5014F
:1005A00083E592E00197F1F762E087E391E00E9432
:1005B000D5018091460180620E94550284E08093BB
:1005C00047018CE00E9455020E945B0282E080930A
:1005D000480186E0DF91CF910C94550280620E9421
:1005E00055028BE496E40197F1F780914601806211
:1005F0000E94550283E592E00197F1F78091460150
:1006000080620E945502D5CF41E00E94020281E043
:1006100090E0089541E0682F87E391E00E94020294
:1006200081E090E008951F920F920FB60F9211246F
:100630002F933F938F939F93AF93BF9380913301F9
:1006400090913401A0913501B09136013091320181
:1006500023E0230F2D3758F50196A11DB11D2093DE
:1006600032018093330190933401A0933501B0930C
:10067000360180912E0190912F01A0913001B0910F
:1006800031010196A11DB11D80932E0190932F0180
:10069000A0933001B0933101BF91AF919F918F91A1
:1006A0003F912F910F900FBE0F901F90189526E845
:1006B000230F0296A11DB11DD2CF789484B582601C
:1006C00084BD84B5816084BD85B5826085BD85B5F6
:1006D000816085BD80916E00816080936E00109274
:1006E00081008091810082608093810080918100EF
:1006F0008160809381008091800081608093800080
:100700008091B10084608093B1008091B0008160DD
:100710008093B00080917A00846080937A00809109
:100720007A00826080937A0080917A008160809361
:100730007A0080917A00806880937A001092C100DC
:1007400082E00E94630260E087E00E940C0160E0AA
:1007500086E00E940C0180E4982EC0E0D0E002E028
:1007600010E097E2A92E91E0B92E90927C00809142
:100770007A00806480937A0080917A0086FDFCCFB5
:100780006091780070917900072E000C880B990B0E
:100790000E94CB0520E030E040EA50E40E94800651
:1007A00020E030E048EC52E40E94800620E030E097
:1007B00040E85AE30E9480066B017C01E1E08091F1
:1007C0004A018111E0E0E195F0E0E95CFE4F8489A7
:1007D00080680E9455028EE091E00E946E01E1E087
:1007E00080914A018111E0E0E195F0E0E95CFE4F83
:1007F00084898A5F80680E945502809100019091EF
:100800000101019781F026E636E646EE5FE3C70177
:10081000B6010E94800620E030E040E052E40E94F1
:1008200029056B017C01A7019601C701B6010E9451
:10083000ED06882309F44DC085E191E00E946E0128
:1008400080912C0190912D01892B89F487E00E94E1
:10085000B5007C0181E0E816F10449F487E00E94CC
:10086000B5000E945B02F0920101E092000187E076
:100870000E94B50090932D0180932C0180912A0154
:1008800090912B01892B71F486E00E94B5000197AD
:1008900049F486E00E94B5000E945B0210930101BA
:1008A0000093000186E00E94B50090932B01809395
:1008B0002A0180910001909101018130910509F494
:1008C00096C0029709F4A0C0B0920101A092000165
:1008D00095C026013701E89477F82FEF3FEF4FE7F7
:1008E0005FE7C301B2010E94ED0681110DC02FEF39
:1008F0003FEF4FE75FE7C301B2010E94950518166D
:100900001CF489E191E09ACF2FEF3FEF4FE75FE4CE
:10091000C701B6010E947B0618161CF48DE191E018
:100920008DCF2FEF3FEF4FE75FECC701B6010E947D
:10093000950587FDF3CF20E030E0A901C701B6019E
:100940000E94950587FF07C08DE20E940A03F7FA0F
:10095000F094F7F8F0942AE037ED43EA5BE3C7013F
:10096000B6010E9429052B013C010E949A056B01EA
:100970007C010E94C9059B01AC01C301B2010E9428
:1009800028052B013C014AE0C701B6010E947B010A
:100990008EE20E940A0320E030E040E251E4C3010D
:1009A000B2010E9480062B013C010E949A056B0156
:1009B000F12CE12C4AE0C701B6010E947B01C7017E
:1009C000B6010E94C9059B01AC01C301B2010E949E
:1009D000280520E030E040E251E40E9480060E94B9
:1009E0009A0590E080E04AE00E947B0129CF8FEDDC
:1009F0000E940A0381E291E00E946E01209709F4AF
:100A0000B4CE0E940000B1CE8FED0E940A0384E2B2
:100A100091E0F2CFE7E3F1E01382128286E091E009
:100A2000918380838CE084838FEF85838BE0868342
:100A300085E0878384E0808783E0818782E0828706
:100A40001386148615861686178681E00C94630239
:100A50005058BB27AA270E9440050C9441060E94CB
:100A6000330638F00E943A0620F039F49F3F19F41B
:100A700026F40C9430060EF4E095E7FB0C942A065D
:100A8000E92F0E94520658F3BA17620773078407CA
:100A9000950720F079F4A6F50C9474060EF4E09511
:100AA0000B2EBA2FA02D0B01B90190010C01CA0128
:100AB000A0011124FF27591B99F0593F50F4503ED3
:100AC00068F11A16F040A22F232F342F4427585FC5
:100AD000F3CF469537952795A795F0405395C9F7DD
:100AE0007EF41F16BA0B620B730B840BBAF0915095
:100AF000A1F0FF0FBB1F661F771F881FC2F70EC034
:100B0000BA0F621F731F841F48F487957795679506
:100B1000B795F7959E3F08F0B0CF9395880F08F0F2
:100B20009927EE0F9795879508950E94060608F479
:100B300081E008950E945A0688F09F5798F0B92FD7
:100B40009927B751B0F0E1F0660F771F881F991F02
:100B50001AF0BA95C9F714C0B13091F00E9474062A
:100B6000B1E008950C947406672F782F8827B85F3A
:100B700039F0B93FCCF3869577956795B395D9F75A
:100B80003EF490958095709561957F4F8F4F9F4F64
:100B90000895E89409C097FB3EF490958095709570
:100BA00061957F4F8F4F9F4F9923A9F0F92F96E9B9
:100BB000BB279395F695879577956795B795F1112E
:100BC000F8CFFAF4BB0F11F460FF1BC06F5F7F4FCB
:100BD0008F4F9F4F16C0882311F096E911C07723DD
:100BE00021F09EE8872F762F05C0662371F096E8E6
:100BF000862F70E060E02AF09A95660F771F881FB5
:100C0000DAF7880F9695879597F90895990F000858
:100C1000550FAA0BE0E8FEEF16161706E807F907CE
:100C2000C0F012161306E407F50798F0621B730B69
:100C3000840B950B39F40A2661F0232B242B252BEA
:100C400021F408950A2609F4A140A6958FEF811D8D
:100C5000811D089597F99F6780E870E060E008952E
:100C60009FEF80EC089500240A94161617061806C4
:100C70000906089500240A941216130614060506A0
:100C80000895092E0394000C11F4882352F0BB0F31
:100C900040F4BF2B11F460FF04C06F5F7F4F8F4F94
:100CA0009F4F089557FD9058440F551F59F05F3FCF
:100CB00071F04795880F97FB991F61F09F3F79F07E
:100CC00087950895121613061406551FF2CF469500
:100CD000F1DF08C0161617061806991FF1CF869582
:100CE0007105610508940895E894BB276627772766
:100CF000CB0197F908950E94060608F48FEF089536
:100D00000E9493060C9441060E94330638F00E941C
:100D10003A0620F0952311F00C942A060C94300624
:100D200011240C9475060E94520670F3959FC1F32E
:100D3000950F50E0551F629FF001729FBB27F00D89
:100D4000B11D639FAA27F00DB11DAA1F649F6627DE
:100D5000B00DA11D661F829F2227B00DA11D621F2D
:100D6000739FB00DA11D621F839FA00D611D221FE7
:100D7000749F3327A00D611D231F849F600D211DCB
:100D8000822F762F6A2F11249F5750409AF0F1F04E
:100D900088234AF0EE0FFF1FBB1F661F771F881FB7
:100DA00091505040A9F79E3F510580F00C942A06BF
:100DB0000C9475065F3FE4F3983ED4F386957795DF
:100DC0006795B795F795E7959F5FC1F7FE2B880F5D
:100DD000911D9695879597F908950E940606880BB0
:100DE000990B0895A1E21A2EAA1BBB1BFD010DC091
:100DF000AA1FBB1FEE1FFF1FA217B307E407F507CB
:100E000020F0A21BB30BE40BF50B661F771F881FA6
:100E1000991F1A9469F760957095809590959B013C
:100E2000AC01BD01CF010895EE0FFF1F0590F491B5
:100E3000E02D0994F894FFCF0100000000000403A6
:100E40003D016B016A0154454D503A20006E616EC0
:100E500000696E66006F76660043200046200043FE
:020E6000000090
:107E0000112484B714BE81FFF0D085E080938100F7
:107E100082E08093C00088E18093C10086E0809377
:107E2000C20080E18093C4008EE0C9D0259A86E02C
:107E300020E33CEF91E0309385002093840096BBD3
:107E4000B09BFECF1D9AA8958150A9F7CC24DD24C4
:107E500088248394B5E0AB2EA1E19A2EF3E0BF2EE7
:107E6000A2D0813461F49FD0082FAFD0023811F036
:107E7000013811F484E001C083E08DD089C08234E0
:107E800011F484E103C0853419F485E0A6D080C0E4
:107E9000853579F488D0E82EFF2485D0082F10E0AE
:107EA000102F00270E291F29000F111F8ED06801E7
:107EB0006FC0863521F484E090D080E0DECF843638
:107EC00009F040C070D06FD0082F6DD080E0C81688
:107ED00080E7D80618F4F601B7BEE895C0E0D1E017
:107EE00062D089930C17E1F7F0E0CF16F0E7DF06D8
:107EF00018F0F601B7BEE89568D007B600FCFDCFD4
:107F0000A601A0E0B1E02C9130E011968C91119780
:107F100090E0982F8827822B932B1296FA010C0160
:107F200087BEE89511244E5F5F4FF1E0A038BF0790
:107F300051F7F601A7BEE89507B600FCFDCF97BE46
:107F4000E89526C08437B1F42ED02DD0F82E2BD052
:107F50003CD0F601EF2C8F010F5F1F4F84911BD097
:107F6000EA94F801C1F70894C11CD11CFA94CF0C13
:107F7000D11C0EC0853739F428D08EE10CD085E9AC
:107F80000AD08FE07ACF813511F488E018D01DD067
:107F900080E101D065CF982F8091C00085FFFCCF94
:107FA0009093C60008958091C00087FFFCCF809118
:107FB000C00084FD01C0A8958091C6000895E0E648
:107FC000F0E098E1908380830895EDDF803219F02E
:107FD00088E0F5DFFFCF84E1DECF1F93182FE3DFCA
:107FE0001150E9F7F2DF1F91089580E0E8DFEE27F6
:047FF000FF270994CA
:027FFE00040479
:00000001FF
