:020000040000FA
:100000000C9461000C947E000C947E000C947E0095
:100010000C947E000C947E000C947E000C947E0068
:100020000C947E000C947E000C947E000C947E0058
:100030000C947E000C947E000C947E000C947E0048
:100040000C945D010C947E000C947E000C947E0058
:100050000C947E000C947E000C947E000C947E0028
:100060000C947E000C947E00000000002500280007
:100070002B0000000000240027002A0000000000E0
:1000800023002600290004040404040404040202DA
:100090000202020203030303030301020408102007
:1000A0004080010204081020010204081020000012
:1000B0000008000201000003040700000000000027
:1000C000000011241FBECFEFD8E0DEBFCDBF11E08E
:1000D000A0E0B1E0EAEAF5E002C005900D92A2309E
:1000E000B107D9F721E0A2E0B1E001C01D92A9312A
:1000F000B207E1F70E94A7010C94D3020C94000010
:10010000833081F028F4813099F08230A9F008958D
:100110008730A9F08830C9F08430B1F48091800034
:100120008F7D03C0809180008F7780938000089539
:1001300084B58F7784BD089584B58F7DFBCF809182
:10014000B0008F778093B00008958091B0008F7DCC
:10015000F9CFCF93DF93282F30E0F901E255FF4F1D
:100160008491F901E656FF4FD491F901EA57FF4F08
:10017000C491CC23A1F081110E948000EC2FF0E00B
:10018000EE0FFF1FE458FF4FA591B491EC91ED23C2
:1001900081E090E009F480E0DF91CF91089580E064
:1001A00090E0FACFCF93DF9390E0FC01E656FF4F4B
:1001B00024918A579F4FFC0184918823D1F090E0CD
:1001C000880F991FFC01EE58FF4FA591B491FC01D7
:1001D000E859FF4FC591D49161110EC09FB7F894B3
:1001E0008C91E22FE0958E238C932881E223E88383
:1001F0009FBFDF91CF9108958FB7F894EC91E22BD8
:10020000EC938FBFF6CF3FB7F89480911501909192
:100210001601A0911701B091180126B5A89B05C041
:100220002F3F19F00196A11DB11D3FBFBA2FA92F75
:10023000982F8827BC01CD01620F711D811D911D72
:1002400042E0660F771F881F991F4A95D1F70895DE
:100250008F929F92AF92BF92CF92DF92EF92FF92D6
:100260000E9403014B015C0184E1C82ED12CE12CDA
:10027000F12C0E940301681979098A099B09683EDB
:10028000734081059105A8F321E0C21AD108E10865
:10029000F10888EE880E83E0981EA11CB11CC114E1
:1002A000D104E104F10429F7FF90EF90DF90CF90A3
:1002B000BF90AF909F908F9008951F920F920FB6AE
:1002C0000F9211242F933F938F939F93AF93BF93DC
:1002D0008091110190911201A0911301B09114012C
:1002E0003091100123E0230F2D3758F50196A11D01
:1002F000B11D209310018093110190931201A093DE
:100300001301B09314018091150190911601A091F1
:100310001701B09118010196A11DB11D809315011F
:1003200090931601A0931701B0931801BF91AF915C
:100330009F918F913F912F910F900FBE0F901F9023
:10034000189526E8230F0296A11DB11DD2CF7894EF
:1003500084B5826084BD84B5816084BD85B58260CA
:1003600085BD85B5816085BD80916E00816080937B
:100370006E001092810080918100826080938100E4
:1003800080918100816080938100809180008160F4
:10039000809380008091B10084608093B10080914F
:1003A000B00081608093B00080917A008460809377
:1003B0007A0080917A00826080937A0080917A003E
:1003C000816080937A0080917A00806880937A00BF
:1003D0001092C10061E08AE00E94D20060E087E0F4
:1003E0000E94D20060E086E00E94D200C0E0D0E02F
:1003F0002FB7F8948091110190911201A0911301EF
:10040000B09114012FBF1C012D019C01AD0160E0D2
:1004100070E080E090E0A0900801B0900901C090E9
:100420000A01D0900B01E0900C01F0900D010091B9
:100430000E0110910F010E94C102B0900101A09025
:1004400000011B2D110F110BC12ED12EE12EF12E0B
:10045000012F0E94CA0208F43FC020920801309286
:100460000901A0930A0150920B0110920C01109205
:100470000D0110920E0110920F01009106011091D2
:10048000070181E090E00115110511F090E080E096
:100490009093070180930601E8EBF0E08491E4EA91
:1004A000F0E0F490E0E9F0E0E490EE20A9F08111B2
:1004B0000E948000EE2DF0E0EE0FFF1FE859FF4F85
:1004C000A591B4918FB7F8949C91012B09F457C072
:1004D000F094F922FC928FBF809104019091050164
:1004E000892BC9F487E00E94A9000197A1F487E055
:1004F0000E94A9000E9428018091000190910101B1
:10050000883C910514F488EC90E08456910990930E
:1005100001018093000187E00E94A90090930501EA
:10052000809304018091020190910301892BD1F401
:1005300086E00E94A9000197A9F486E00E94A90024
:100540000E94280180910001909101018D36F7E011
:100550009F0714F08CE697E08C599F4F9093010110
:100560008093000186E00E94A9009093030180938C
:100570000201209709F43CCF0E94000039CFF92AEC
:10058000A9CF2A193B094C095D096E097F09800B27
:10059000910B08952A153B054C055D056E057F05F9
:0C05A000800791070895F894FFCF6400D5
:107E0000112484B714BE81FFF0D085E080938100F7
:107E100082E08093C00088E18093C10086E0809377
:107E2000C20080E18093C4008EE0C9D0259A86E02C
:107E300020E33CEF91E0309385002093840096BBD3
:107E4000B09BFECF1D9AA8958150A9F7CC24DD24C4
:107E500088248394B5E0AB2EA1E19A2EF3E0BF2EE7
:107E6000A2D0813461F49FD0082FAFD0023811F036
:107E7000013811F484E001C083E08DD089C08234E0
:107E800011F484E103C0853419F485E0A6D080C0E4
:107E9000853579F488D0E82EFF2485D0082F10E0AE
:107EA000102F00270E291F29000F111F8ED06801E7
:107EB0006FC0863521F484E090D080E0DECF843638
:107EC00009F040C070D06FD0082F6DD080E0C81688
:107ED00080E7D80618F4F601B7BEE895C0E0D1E017
:107EE00062D089930C17E1F7F0E0CF16F0E7DF06D8
:107EF00018F0F601B7BEE89568D007B600FCFDCFD4
:107F0000A601A0E0B1E02C9130E011968C91119780
:107F100090E0982F8827822B932B1296FA010C0160
:107F200087BEE89511244E5F5F4FF1E0A038BF0790
:107F300051F7F601A7BEE89507B600FCFDCF97BE46
:107F4000E89526C08437B1F42ED02DD0F82E2BD052
:107F50003CD0F601EF2C8F010F5F1F4F84911BD097
:107F6000EA94F801C1F70894C11CD11CFA94CF0C13
:107F7000D11C0EC0853739F428D08EE10CD085E9AC
:107F80000AD08FE07ACF813511F488E018D01DD067
:107F900080E101D065CF982F8091C00085FFFCCF94
:107FA0009093C60008958091C00087FFFCCF809118
:107FB000C00084FD01C0A8958091C6000895E0E648
:107FC000F0E098E1908380830895EDDF803219F02E
:107FD00088E0F5DFFFCF84E1DECF1F93182FE3DFCA
:107FE0001150E9F7F2DF1F91089580E0E8DFEE27F6
:047FF000FF270994CA
:027FFE00040479
:00000001FF
