:100000000C9462000C948A000C948A000C948A0070
:100010000C948A000C948A000C948A000C948A0038
:100020000C948A000C948A000C948A000C948A0028
:100030000C948A000C948A000C948A000C948A0018
:100040000C9410030C948A000C948A000C948A007F
:100050000C948A000C948A000C948A000C948A00F8
:100060000C948A000C948A000000000024002700F1
:100070002A0000000000250028002B0000000000DE
:1000800023002600290004040404040404040202DA
:100090000202020203030303030301020408102007
:1000A0004080010204081020010204081020000012
:1000B0000008000201000003040700000000000027
:1000C0000000340511241FBECFEFD8E0DEBFCDBF46
:1000D00011E0A0E0B1E0ECE8FEE002C005900D9276
:1000E000A832B107D9F721E0A8E2B1E001C01D9222
:1000F000AB34B207E1F710E0C2E6D0E004C02197CC
:10010000FE010E943E07C136D107C9F70E945A037B
:100110000C9444070C940000833081F028F4813063
:1001200099F08230A9F008958730A9F08830C9F09D
:100130008430B1F4809180008F7D03C08091800075
:100140008F7780938000089584B58F7784BD08955C
:1001500084B58F7DFBCF8091B0008F778093B00006
:1001600008958091B0008F7DF9CFCF93DF93282F32
:1001700030E0F901E255FF4F8491F901E656FF4F57
:10018000D491F901EA57FF4FC491CC23A1F081111A
:100190000E948C00EC2FF0E0EE0FFF1FE458FF4FA1
:1001A000A591B491EC91ED2381E090E009F480E019
:1001B000DF91CF91089580E090E0FACF1F93CF9325
:1001C000DF93282F30E0F901E255FF4F8491F901C8
:1001D000E656FF4FD491F901EA57FF4FC491CC2363
:1001E000A9F0162F81110E948C00EC2FF0E0EE0F89
:1001F000FF1FEE58FF4FA591B4918FB7F894EC9183
:10020000111108C0D095DE23DC938FBFDF91CF9111
:100210001F910895DE2BF8CFCF93DF9390E0FC0180
:10022000E656FF4F24918A579F4FFC018491882303
:10023000D1F090E0880F991FFC01E859FF4FA5917C
:10024000B491FC01EE58FF4FC591D49161110EC0DD
:100250009FB7F8948C91E22FE0958E238C932881A0
:10026000E223E8839FBFDF91CF9108958FB7F89481
:10027000EC91E22BEC938FBFF6CFAF92BF92CF926F
:10028000DF92EF92FF920F931F93CF93DF936C0156
:100290007B018B01040F151FEB015E01AE18BF0837
:1002A000C017D10759F06991D601ED91FC910190E9
:1002B000F081E02DC6010995892B79F7C501DF9101
:1002C000CF911F910F91FF90EF90DF90CF90BF9053
:1002D000AF900895089590E080E00895FC010190AA
:1002E0000020E9F73197AF01481B590BBC0183E3AC
:1002F00091E00C943D018F929F92AF92BF920F9329
:100300001F93CF93DF93CDB7DEB7A1970FB6F894C5
:10031000DEBF0FBECDBF19A2423008F44AE08E0105
:100320000F5D1F4F842E912CB12CA12CA50194019F
:100330000E941C07E62FB901CA01EA30F4F4E05D1F
:10034000D801EE938D01232B242B252B79F790E0F8
:1003500080E0109719F0CD010E946E01A1960FB6B2
:10036000F894DEBF0FBECDBFDF91CF911F910F91EB
:10037000BF90AF909F908F900895E95CE1CFCF93AD
:10038000DF93EC0160E08E810E94DE0061E08E81EF
:100390000E94DE0060E08E810E94DE008BE891E02A
:1003A0000197F1F7DF91CF910895CF92DF92EF920D
:1003B000FF920F931F93CF93DF936C017C0187E033
:1003C000E80EF11CD0E0C0E0062F10E0B8010C2EC2
:1003D00002C0759567950A94E2F76170F701819103
:1003E0007F010E94DE002196C430D10579F7C60155
:1003F000DF91CF911F910F91FF90EF90DF90CF9001
:100400000C94BF01CF92DF92EF92FF920F931F9354
:10041000CF93DF93EC01F62E642F8C810E94DE00D7
:100420008D818F3F19F060E00E94DE000F2D10E0FB
:100430008F8584FF25C06E0187E0C80ED11CF12C8A
:10044000E12CB8010E2C02C0759567950A94E2F76D
:100450006170F60181916F010E94DE00FFEFEF1ADB
:10046000FF0A88E0E816F10461F7CE01DF91CF9131
:100470001F910F91FF90EF90DF90CF900C94BF01F0
:10048000B80184E0759567958A95E1F7CE010E94E1
:10049000D5016F2DCE01DF91CF911F910F91FF906C
:1004A000EF90DF90CF900C94D50140E0682F83E36C
:1004B00091E00C940202CF93DF93823029F4909163
:1004C0004201986090934201809346011092470147
:1004D00080E48093480180E18093490180E5809326
:1004E0004A0161E0809137010E940C01809138013E
:1004F0008F3F19F061E00E940C0161E080913901A9
:100500000E940C01C3E3D1E09E012353314080914E
:10051000420184FD0BC084E090E021962817390742
:1005200044F461E08E810E940C01EECF88E090E0FF
:10053000F4CF8BE39DE00197F1F760E08091370104
:100540000E94DE0060E0809139010E94DE0080910F
:1005500038018F3F19F060E00E94DE008091420177
:1005600084FD39C063E083E391E00E94D501CBE4D0
:10057000D6E4CE010197F1F763E083E391E00E94B6
:10058000D5012197F1F763E083E391E00E94D50163
:1005900083E592E00197F1F762E083E391E00E9446
:1005A000D5018091420180620E94550284E08093CF
:1005B00043018CE00E94550281E00E9455028BE3CA
:1005C0009FE10197F1F782E08093440186E0DF919B
:1005D000CF910C94550280620E9455028BE496E400
:1005E0000197F1F78091420180620E94550283E5F4
:1005F00092E00197F1F78091420180620E945502DA
:10060000D0CF41E00E94020281E090E0089541E0F5
:10061000682F83E391E00E94020281E090E0089558
:100620001F920F920FB60F9211242F933F938F9327
:100630009F93AF93BF9380912F0190913001A09130
:100640003101B091320130912E0123E0230F2D377B
:1006500058F50196A11DB11D20932E0180932F0105
:1006600090933001A0933101B093320180912A011F
:1006700090912B01A0912C01B0912D010196A11D0B
:10068000B11D80932A0190932B01A0932C01B0936C
:100690002D01BF91AF919F918F913F912F910F901D
:1006A0000FBE0F901F90189526E8230F0296A11DEC
:1006B000B11DD2CF789484B5826084BD84B5816049
:1006C00084BD85B5826085BD85B5816085BD80911D
:1006D0006E00816080936E00109281008091810095
:1006E000826080938100809181008160809381008D
:1006F000809180008160809380008091B10084604F
:100700008093B1008091B00081608093B0008091AF
:100710007A00846080937A0080917A00826080936E
:100720007A0080917A00816080937A0080917A00CB
:10073000806880937A001092C10082E00E945B0280
:1007400061E088E00E940C0161E089E00E940C01F8
:1007500061E08AE00E940C0160E086E00E940C01EA
:100760008BE3882E8FE1982E90E0292E90E0392E91
:10077000AA24A394B12C80E480937C0080917A0019
:10078000806480937A0080917A0086FDFCCF60912E
:10079000780070917900072E000C880B990B0E944D
:1007A000F50520E030E040EA50E40E94AA0620E08F
:1007B00030E048EC52E40E94AA0620E030E040E835
:1007C0005AE30E94AA068B01D82FC92FE1E080913D
:1007D00046018111E0E0E195F0E0ED5CFE4F848997
:1007E00080680E9455028EE091E00E946E01E1E077
:1007F000809146018111E0E0E195F0E0ED5CFE4F73
:1008000084898A5F80680E945502809100019091DE
:1008100001016801ED2EFC2E019789F026E636E6EF
:1008200046EE5FE3B8018D2F9C2F0E94AA0620E0C0
:1008300030E040E052E40E9453056B017C01A701C7
:100840009601C701B6010E9417078823D1F185E1FF
:1008500091E00E946E018091280190912901892BDD
:10086000C9F4E0900001F090010186E00E94B5001B
:10087000019781F486E00E94B50081E00E94550254
:10088000C4010197F1F78FEFE81AF80AF09201011D
:10089000E092000186E00E94B500909329018093C8
:1008A000280180910001909101018130910509F4A6
:1008B00096C0029709F4B8C0B0920101A09200015D
:1008C00095C026013701E89477F82FEF3FEF4FE707
:1008D0005FE7C301B2010E94170781110DC02FEF1E
:1008E0003FEF4FE75FE7C301B2010E94BF05181653
:1008F0001CF489E191E0ADCF2FEF3FEF4FE75FE4CC
:10090000C701B6010E94A50618161CF48DE191E0FE
:10091000A0CF2FEF3FEF4FE75FECC701B6010E947A
:10092000BF0587FDF3CF20E030E0A901C701B60184
:100930000E94BF0587FF07C08DE20E940703F7FAF8
:10094000F094F7F8F0942AE037ED43EA5BE3C7014F
:10095000B6010E9453052B013C010E94C4056B01A6
:100960007C010E94F3059B01AC01C301B2010E940E
:1009700052052B013C014AE0C701B6010E947B01F0
:100980008EE20E94070320E030E040E251E4C30120
:10099000B2010E94AA062B013C010E94C4056B0112
:1009A000F12CE12C4AE0C701B6010E947B01C7018E
:1009B000B6010E94F3059B01AC01C301B2010E9484
:1009C000520520E030E040E251E40E94AA060E9475
:1009D000C40590E080E04AE00E947B013CCF8FEDAF
:1009E0000E94070381E291E00E946E0120E030E066
:1009F00048E851E4B8018D2F9C2F0E94BF0587FF66
:100A000019C061E088E00E94DE0060E089E00E9499
:100A1000DE0060E08AE00E94DE002114310409F467
:100A2000AACE0E940000A7CE8FED0E94070384E2A9
:100A300091E0DACF20E030E040EF51E4B8018D2FB3
:100A40009C2F0E94A50660E018162CF088E00E94FA
:100A5000DE0061E0DBCF88E00E94DE0060E089E03C
:100A60000E94DE0061E0D6CFE3E3F1E01382128260
:100A700086E091E0918380838CE084838FEF85838F
:100A80008BE0868385E0878384E0808783E08187AD
:100A900082E082871386148615861686178681E083
:100AA0000C945B025058BB27AA270E946A050C943D
:100AB0006B060E945D0638F00E94640620F039F44F
:100AC0009F3F19F426F40C945A060EF4E095E7FBC8
:100AD0000C945406E92F0E947C0658F3BA1762075B
:100AE00073078407950720F079F4A6F50C949E0609
:100AF0000EF4E0950B2EBA2FA02D0B01B901900139
:100B00000C01CA01A0011124FF27591B99F0593F7C
:100B100050F4503E68F11A16F040A22F232F342FC4
:100B20004427585FF3CF469537952795A795F04012
:100B30005395C9F77EF41F16BA0B620B730B840B27
:100B4000BAF09150A1F0FF0FBB1F661F771F881FDF
:100B5000C2F70EC0BA0F621F731F841F48F4879537
:100B600077956795B795F7959E3F08F0B0CF939529
:100B7000880F08F09927EE0F9795879508950E94A2
:100B8000300608F481E008950E94840688F09F579B
:100B900098F0B92F9927B751B0F0E1F0660F771FA1
:100BA000881F991F1AF0BA95C9F714C0B13091F097
:100BB0000E949E06B1E008950C949E06672F782F40
:100BC0008827B85F39F0B93FCCF38695779567955C
:100BD000B395D9F73EF490958095709561957F4FC8
:100BE0008F4F9F4F0895E89409C097FB3EF490956E
:100BF0008095709561957F4F8F4F9F4F9923A9F0F6
:100C0000F92F96E9BB279395F69587957795679584
:100C1000B795F111F8CFFAF4BB0F11F460FF1BC0C8
:100C20006F5F7F4F8F4F9F4F16C0882311F096E95B
:100C300011C0772321F09EE8872F762F05C0662309
:100C400071F096E8862F70E060E02AF09A95660FC2
:100C5000771F881FDAF7880F9695879597F908957B
:100C6000990F0008550FAA0BE0E8FEEF16161706BD
:100C7000E807F907C0F012161306E407F50798F025
:100C8000621B730B840B950B39F40A2661F0232B3E
:100C9000242B252B21F408950A2609F4A140A695BA
:100CA0008FEF811D811D089597F99F6780E870E09F
:100CB00060E008959FEF80EC089500240A941616D2
:100CC000170618060906089500240A94121613063A
:100CD000140605060895092E0394000C11F48823C8
:100CE00052F0BB0F40F4BF2B11F460FF04C06F5FE4
:100CF0007F4F8F4F9F4F089557FD9058440F551FBA
:100D000059F05F3F71F04795880F97FB991F61F08D
:100D10009F3F79F087950895121613061406551F04
:100D2000F2CF4695F1DF08C0161617061806991F70
:100D3000F1CF86957105610508940895E894BB2765
:100D400066277727CB0197F908950E94300608F4AB
:100D50008FEF08950E94BD060C946B060E945D06FD
:100D600038F00E94640620F0952311F00C9454068C
:100D70000C945A0611240C949F060E947C0670F372
:100D8000959FC1F3950F50E0551F629FF001729F30
:100D9000BB27F00DB11D639FAA27F00DB11DAA1F3F
:100DA000649F6627B00DA11D661F829F2227B00D8C
:100DB000A11D621F739FB00DA11D621F839FA00D17
:100DC000611D221F749F3327A00D611D231F849F67
:100DD000600D211D822F762F6A2F11249F575040BE
:100DE0009AF0F1F088234AF0EE0FFF1FBB1F661F39
:100DF000771F881F91505040A9F79E3F510580F002
:100E00000C9454060C949F065F3FE4F3983ED4F391
:100E1000869577956795B795F795E7959F5FC1F7A5
:100E2000FE2B880F911D9695879597F908950E943E
:100E30003006880B990B0895A1E21A2EAA1BBB1B42
:100E4000FD010DC0AA1FBB1FEE1FFF1FA217B30796
:100E5000E407F50720F0A21BB30BE40BF50B661FAC
:100E6000771F881F991F1A9469F760957095809570
:100E700090959B01AC01BD01CF010895EE0FFF1FBE
:0C0E80000590F491E02D0994F894FFCF48
:100E8C0001000000000001033D016B016A015445A3
:100E9C004D503A20006E616E00696E66006F76668A
:080EAC00004320004620000075
:00000001FF
