:100000000C945C000C9479000C9479000C947900A9
:100010000C9479000C9479000C9479000C9479007C
:100020000C9479000C9479000C9479000C9479006C
:100030000C9479000C9479000C9479000C9479005C
:100040000C94C7000C9479000C9479000C947900FE
:100050000C9479000C9479000C9479000C9479003C
:100060000C9479000C947900000000002400270013
:100070002A0000000000250028002B0004040404CE
:100080000404040402020202020203030303030342
:10009000010204081020408001020408102001021F
:1000A00004081020000000080002010000030407FB
:1000B000000000000000000011241FBECFEFD8E0B8
:1000C000DEBFCDBF11E0A0E0B1E0E0E9F5E002C0A5
:1000D00005900D92AC31B107D9F721E0ACE1B1E068
:1000E00001C01D92AD32B207E1F70E9411010C94DC
:1000F000C6020C94000090E0FC01EC55FF4F2491E7
:10010000FC01E057FF4F3491FC01E458FF4FE491AC
:10011000EE23C9F0222339F0233001F1A8F4213075
:1001200019F1223029F1F0E0EE0FFF1FEE58FF4FDA
:10013000A591B4918FB7F894EC91611126C03095D8
:100140003E233C938FBF08952730A9F02830C9F093
:10015000243049F7809180008F7D03C0809180001A
:100160008F7780938000DFCF84B58F7784BDDBCF1E
:1001700084B58F7DFBCF8091B0008F778093B000E6
:10018000D2CF8091B0008F7DF9CF3E2BDACF1F9276
:100190000F920FB60F9211242F933F938F939F933B
:1001A000AF93BF938091290190912A01A0912B01D7
:1001B000B0912C013091280123E0230F2D3758F501
:1001C0000196A11DB11D20932801809329019093D0
:1001D0002A01A0932B01B0932C01809124019091CE
:1001E0002501A0912601B09127010196A11DB11D05
:1001F0008093240190932501A0932601B0932701B9
:10020000BF91AF919F918F913F912F910F900FBE12
:100210000F901F90189526E8230F0296A11DB11D7F
:10022000D2CF789484B5826084BD84B5816084BD6A
:1002300085B5826085BD85B5816085BD80916E0084
:10024000816080936E0010928100809181008260B5
:1002500080938100809181008160809381008091F2
:1002600080008160809380008091B10084608093E1
:10027000B1008091B00081608093B00080917A00DD
:10028000846080937A0080917A00826080937A0003
:1002900080917A00816080937A0080917A008068F2
:1002A00080937A001092C100A4E0B1E081E0A43311
:1002B000B80709F067C0C8EBDBE02FB7F89480916E
:1002C000290190912A01A0912B01B0912C012FBFFF
:1002D0001C012D019C01AD0160E070E080E090E028
:1002E000A0901C01B0901D01C0901E01D0901F0174
:1002F000E0902001F0902101009122011091230152
:100300000E94B402B0900301A09002011B2D110FB6
:10031000110BC12ED12EE12EF12E012F0E94BD0214
:10032000C8F020921C0130921D01A0931E01509232
:100330001F011092200110922101109222011092AF
:100340002301809100019091010101969093010198
:10035000809300018091000190910101823091050C
:1003600009F4A2C00CF030C0019709F461C0D09329
:100370000301C093020181E090E09093010180931A
:1003800000018AC08D919D919927FC01E057FF4F94
:10039000249184589F4FFC018491882309F486CFCF
:1003A00090E0880F991FFC01E859FF4FC591D49147
:1003B000FC01EE58FF4F859194918FB7F894E88136
:1003C000E22BE8838FBF72CF8330910509F499C087
:1003D000049709F0CCCFE0EDF7E0F0930301E09350
:1003E000020160E084E00E947B0060E08AE00E94FD
:1003F0007B0060E086E00E947B0060E08CE00E9471
:100400007B0060E082E00E947B0060E088E00E9468
:100410007B0060E083E00E947B0060E089E00E9456
:100420007B0061E085E00E947B0061E08BE093C08F
:10043000D0930301C093020160E081E00E947B0041
:1004400060E087E00E947B0060E082E00E947B0029
:1004500060E088E00E947B0060E085E00E947B0015
:1004600060E08BE00E947B0060E086E00E947B0001
:1004700060E08CE00E947B0061E083E00E947B00F2
:1004800061E089E00E947B0061E084E00E947B00E3
:1004900061E08AE00E947B00E0E0F0E0EF2B09F4ED
:1004A0000CCF0E94000009CF80ED97E090930301EC
:1004B0008093020160E081E00E947B0060E087E0C1
:1004C0000E947B0060E083E00E947B0060E089E0A6
:1004D0000E947B0060E085E00E947B0060E08BE092
:1004E0000E947B0060E086E00E947B0060E08CE080
:1004F0000E947B0061E082E00E947B0061E088E076
:10050000C1CFD0930301C093020160E084E00E9458
:100510007B0060E08AE00E947B0060E085E00E9452
:100520007B0060E08BE00E947B0060E082E00E9444
:100530007B0060E088E00E947B0060E083E00E9436
:100540007B0060E089E00E947B0061E086E00E9421
:100550007B0061E08CE00E947B0061E081E00E9412
:100560007B0061E087E096CF2A193B094C095D09C1
:100570006E097F09800B910B08952A153B054C05E8
:100580005D056E057F05800791070895F894FFCFFC
:100590000100B80B01000200030004000500060082
:0C05A0000700080009000A000B000C0016
:00000001FF
