:100000000C9462000C948A000C948A000C948A0070
:100010000C948A000C948A000C948A000C948A0038
:100020000C948A000C948A000C948A000C948A0028
:100030000C948A000C948A000C948A000C948A0018
:100040000C94B6020C948A000C948A000C948A00DA
:100050000C948A000C948A000C948A000C948A00F8
:100060000C948A000C948A000000000024002700F1
:100070002A0000000000250028002B0000000000DE
:1000800023002600290004040404040404040202DA
:100090000202020203030303030301020408102007
:1000A0004080010204081020010204081020000012
:1000B0000008000201000003040700000000000027
:1000C0000000A10311241FBECFEFD8E0DEBFCDBFDB
:1000D00011E0A0E0B1E0EEE8F7E002C005900D927B
:1000E000A431B107D9F721E0A4E1B1E001C01D922C
:1000F000A933B207E1F710E0C2E6D0E004C02197CF
:10010000FE010E94BF03C136D107C9F70E94000358
:100110000C94C5030C940000833081F028F48130E6
:1001200099F08230A9F008958730A9F08830C9F09D
:100130008430B1F4809180008F7D03C08091800075
:100140008F7780938000089584B58F7784BD08955C
:1001500084B58F7DFBCF8091B0008F778093B00006
:1001600008958091B0008F7DF9CFCF93DF93282F32
:1001700030E0F901E255FF4F8491F901E656FF4F57
:10018000D491F901EA57FF4FC491CC23A1F081111A
:100190000E948C00EC2FF0E0EE0FFF1FE458FF4FA1
:1001A000A591B491EC91ED2381E090E009F480E019
:1001B000DF91CF91089580E090E0FACF1F93CF9325
:1001C000DF93282F30E0F901E255FF4F8491F901C8
:1001D000E656FF4FD491F901EA57FF4FC491CC2363
:1001E000A9F0162F81110E948C00EC2FF0E0EE0F89
:1001F000FF1FEE58FF4FA591B4918FB7F894EC9183
:10020000111108C0D095DE23DC938FBFDF91CF9111
:100210001F910895DE2BF8CFCF93DF9390E0FC0180
:10022000E656FF4F24918A579F4FFC018491882303
:10023000D1F090E0880F991FFC01E859FF4FA5917C
:10024000B491FC01EE58FF4FC591D49161110EC0DD
:100250009FB7F8948C91E22FE0958E238C932881A0
:10026000E223E8839FBFDF91CF9108958FB7F89481
:10027000EC91E22BEC938FBFF6CFAF92BF92CF926F
:10028000DF92EF92FF920F931F93CF93DF936C0156
:100290007B018B01040F151FEB015E01AE18BF0837
:1002A000C017D10759F06991D601ED91FC910190E9
:1002B000F081E02DC6010995892B79F7C501DF9101
:1002C000CF911F910F91FF90EF90DF90CF90BF9053
:1002D000AF900895089590E080E00895CF93DF9364
:1002E000EC0160E08E810E94DE0061E08E810E9460
:1002F000DE0060E08E810E94DE008BE891E00197D5
:10030000F1F7DF91CF910895CF92DF92EF92FF92B4
:100310000F931F93CF93DF936C017C0187E0E80E6E
:10032000F11CD0E0C0E0062F10E0B8010C2E02C096
:10033000759567950A94E2F76170F70181917F01E5
:100340000E94DE002196C430D10579F7C601DF9105
:10035000CF911F910F91FF90EF90DF90CF900C9471
:100360006E01CF92DF92EF92FF920F931F93CF9384
:10037000DF93EC01F62E642F8C810E94DE008D81CC
:100380008F3F19F060E00E94DE000F2D10E08F8596
:1003900084FF25C06E0187E0C80ED11CF12CE12C32
:1003A000B8010E2C02C0759567950A94E2F761704A
:1003B000F60181916F010E94DE00FFEFEF1AFF0A44
:1003C00088E0E816F10461F7CE01DF91CF911F912B
:1003D0000F91FF90EF90DF90CF900C946E01B801D9
:1003E00084E0759567958A95E1F7CE010E948401B6
:1003F0006F2DCE01DF91CF911F910F91FF90EF9064
:10040000DF90CF900C94840140E0682F81E291E06E
:100410000C94B101CF93DF93823029F49091300195
:10042000986090933001809334011092350180E4FC
:100430008093360180E18093370180E58093380115
:1004400061E0809125010E940C01809126018F3F7F
:1004500019F061E00E940C0161E0809127010E9487
:100460000C01C1E2D1E09E01215231408091300166
:1004700084FD0BC084E090E021962817390744F4EE
:1004800061E08E810E940C01EECF88E090E0F4CF15
:100490008BE39DE00197F1F760E0809125010E94D8
:1004A000DE0060E0809127010E94DE00809126013D
:1004B0008F3F19F060E00E94DE008091300184FDE2
:1004C00039C063E081E291E00E948401CBE4D6E48C
:1004D000CE010197F1F763E081E291E00E9484018F
:1004E0002197F1F763E081E291E00E94840183E5C6
:1004F00092E00197F1F762E081E291E00E948401CD
:100500008091300180620E94040284E08093310176
:100510008CE00E94040281E00E9404028BE39FE1D0
:100520000197F1F782E08093320186E0DF91CF916D
:100530000C94040280620E9404028BE496E401970A
:10054000F1F78091300180620E94040283E592E01D
:100550000197F1F78091300180620E940402D0CFB0
:1005600041E00E94B10181E090E008951F920F9256
:100570000FB60F9211242F933F938F939F93AF93B6
:10058000BF9380911D0190911E01A0911F01B09118
:10059000200130911C0123E0230F2D3758F50196DF
:1005A000A11DB11D20931C0180931D0190931E017C
:1005B000A0931F01B093200180911801909119011F
:1005C000A0911A01B0911B010196A11DB11D80934C
:1005D000180190931901A0931A01B0931B01BF91C8
:1005E000AF919F918F913F912F910F900FBE0F90E0
:1005F0001F90189526E8230F0296A11DB11DD2CF9A
:10060000789484B5826084BD84B5816084BD85B5ED
:10061000826085BD85B5816085BD80916E008160F9
:1006200080936E001092810080918100826080939F
:1006300081008091810081608093810080918000A1
:100640008160809380008091B10084608093B100CC
:100650008091B00081608093B00080917A008460C6
:1006600080937A0080917A00826080937A008091F2
:100670007A00816080937A0080917A00806880930C
:100680007A001092C10082E00E940A0246E050E027
:100690006CE071E081E291E00E943D0161E089E05F
:1006A0000E940C0160E086E00E940C0100E010E076
:1006B0008091160190911701892B89F4C091140142
:1006C000D091150186E00E94B500019741F486E0C3
:1006D0000E94B5002196D0931501C093140186E0C5
:1006E0000E94B50090931701809316018091140128
:1006F000909115018130910539F00297B9F010926F
:100700001501109214010CC0809131018B7F8093F0
:10071000310188600E94040261E089E00E94DE00ED
:100720000115110529F20E940000C2CF809131010C
:10073000982F9460909331018C600E94040260E0D5
:10074000ECCFE1E2F1E01382128284E091E0918348
:1007500080838CE084838FEF85838BE0868385E0C4
:10076000878384E0808783E0818782E082871386A5
:10077000148615861686178681E00C940A02EE0F01
:0E078000FF1F0590F491E02D0994F894FFCF2F
:10078E0000000000B0023D016B016A0148454C4C6F
:04079E004F210000E7
:00000001FF
